:1000000038C50CC41895189518951895189561C49D
:100010001895189518951895189518951895189578
:10002000189518954CC31DC334C318951895189589
:10003000189518953F004A009D00DF004E029F0270
:100040008403F7037903C1049C0096010000360085
:100050006001D40DC800B80100E040E0542F550FF6
:10006000550B4217530750F4542F550F550BFB01F6
:10007000E40FF51F1081010F4395F0CF08953DD592
:10008000C801082F092B21F020FB16F48C0103D5A1
:10009000E2E042C530D5D801C9010A2F0B2B79F017
:1000A00006E310E0FD010287138722E030E08D01B6
:1000B0000C5F1F4F66D480FB16F48D01ECD4E4E096
:1000C00029C5A89508957894089500939D010895F1
:1000D000089511D52C971FD4F6DF24EF31E08E015F
:1000E0000A5F1F4F3CD42AE030E08E0138D423E170
:1000F00032E003E012E013D36DD0DBD100E0E5DFA6
:1001000080E090E0A0E0B0E023D164D1082F00505F
:1001100049F00A9551F00A9541F0035029F00A95EB
:1001200021F003C081E001C0D3DFCBDFEDCF28E3B6
:1001300030E0F801218332830895DFD4C801082F0D
:10014000092B21F020FB16F48C01A5D4E2E0E4C4D5
:10015000980103E0273110E0310710F402E0089520
:100160002F3810E0310710F401E00895213A10E033
:10017000310728F02A3212E0310708F400E0089530
:10018000BCD4C80122E030E08C01D7DFE2E0C4C477
:1001900068E272E048E150E023E030E00EE911E06F
:1001A0005BD500E611E027D4089565E372E048E1ED
:1001B00050E023E030E00EE911E095D508959DD49C
:1001C000C801082F092B21F020FB16F48C0163D401
:1001D000E2E0A2C417D301E0009399010895EAE98F
:1001E000F1E000E0008300E00183B4D2089553D130
:1001F0000895CFD208957FD4A0E088EE91E0B0E0DA
:10020000FC01EA0FFB1F00E00083A395B0E0FC01B6
:10021000EA0FFB1F02E40083A39520E028310CF0D5
:1002200046C0B0E0FC01EA0FFB1F00E0008330E0B5
:100230003830ACF52831DCF5022F102F110F110BDF
:10024000000F111FF801EA59FE4F008110E048E14C
:1002500050E027D46EE971E0600F711F022F102F5C
:10026000110F110B000F111FF801EA59FE4F018108
:1002700010E043E050E015D4600F711FFB010081D6
:1002800010E003701070432F16D4B0E0FC01EA0FA9
:10029000FB1F1081102B108323953E5FC9CFA395C0
:1002A000B0E0FC01EA0FFB1F00E00083B7CF2A2F6C
:1002B00030E0225030408C010E5F1F4FCCDEB0E0AA
:1002C000FC01EA0FFB1F0083E4E024C4B8018A01AB
:1002D00042E9F901E00FF11F51E950830F5F1F4F11
:1002E000F901E00FF11F51E050830F5F1F4FF9013B
:1002F000E00FF11F40830F5F1F4F0895FAD32801CD
:10030000D901CA014AE050E028EE31E08D010DD458
:100310008C01E6E0FDC3EBD3D80129013A01C3010A
:100320000C91015891F00A9581F00F5019F0015B82
:1003300039F00BC0AC0192018D01C8DFC80105C0C6
:10034000AC0192018D01DADFC8018C01E8E0DEC367
:10035000D4D3009199010050D9F10A9529F00A955A
:1003600041F00750A9F134C03ADF02E0009399014F
:100370002FC03DDF002361F13CDFC801813000E088
:100380009007FCF0EAE9F1E000811181080F191FE4
:1003900000831183EAE9F1E040815181E8EFF1E067
:1003A00020813181E6EFF1E000811181B4DF012B82
:1003B00021F009E0009399010BC000E0009399013E
:1003C00007C08F3F0FEF900719F400E000939901E9
:1003D000E2E0A2C392D300919D010050B9F10A95C9
:1003E00019F0095069F032C000E000939C010091BF
:1003F0009C016CD08FD077D00AE000939D0126C07D
:100400003CD0002319F191D0C8018FD0A1DE202F5C
:1004100000919C0110E043E050E043D3F801E25624
:10042000FE4F20AB00919C01039500939C0100912D
:100430009C01083030F45DD000919C0147D053D02E
:1004400005C05DD0D8DE00E000939D01E2E064C30A
:1004500054D3C80167E970E043E050E028E030E0A1
:100460008C01FAD38C01E2E057C360EC70E043E00A
:1004700050E028E030E037D4089500917A00102F42
:1004800014FF07C000917A00006100937A0001E038
:10049000089500E008950091FE0108952ED3C8014B
:1004A000082F092B21F020FB16F48C01F4D2E2E096
:1004B00033C30FE300937E0007E000937A0000E06F
:1004C00000937B0000EC00937C00089510917C0069
:1004D000107F10937C00102F1F7020917C00212B27
:1004E00020937C00089500917A00006C00937A00BC
:1004F000089500917A000F7300937A000895009197
:100500007A000F7300937A000091640001600093F9
:1005100064000895009164000E7F009364000091D0
:100520007A00006800937A0008952091780030E006
:1005300089013091790020E0022B132B0895DDD240
:10054000C801082F092B21F020FB16F48C01A3D23F
:10055000E2E0E2C2D0D2F801418901E010E0ABD282
:100560000095A785B0891C9110231C93E4E0D2C2AA
:10057000C2D2F80124893589232B99F4F801A68188
:10058000B7812C912F7D2C93F801A481B5812C91FA
:1005900020642C93F801A681B7812C9120642C93C0
:1005A00015C0F801A289B3899D012F5F3F4FF80163
:1005B000228B338B2C91F801A285B3852C93F80103
:1005C0002489358921503040248B358BE4E0A2C248
:1005D00092D2D8011696ED91FC9117970081077B76
:1005E0000083FD0104851585012B11F08D01B2DF1B
:1005F0001496ED91FC911597008100680083169682
:10060000ED91FC911797008100690083FD0101E0E5
:10061000038FE4E07FC26FD2F801208D318D20304E
:1006200041E0340738F0F80121E0248FF80121E09F
:10063000228F15C0F801208D318DC9010196F80176
:10064000808F918FF801A285B3854C91F801A6891E
:10065000B789A20FB31F4C93F80121E0228FE4E089
:1006600059C2FA93EA930A924A933A932A931A93B5
:100670000A934FB7009125021091260279DF4FBFF0
:10068000099119912991399149910990E991F9912B
:100690001895FA93EA930A924A932A931A930A9323
:1006A0002FB7009125021091260292DF2FBF0991EA
:1006B0001991299149910990E991F9911895FA9325
:1006C000EA930A925A934A933A932A931A930A9373
:1006D0005FB700912502109126029DDF5FBF09914F
:1006E000199129913991499159910990E991F9917B
:1006F000189503D2C801082F092B21F020FB16F40E
:100700008C01C9D1E2E008C2F8D1C801082F092B39
:1007100021F020FB16F48C01BED1E2E0FDC1E6EF32
:10072000F1E000831183E8EFF1E02083318344B1ED
:10073000426144B94CB542604CBD089529980CB54E
:10074000006C0CBD00E00EBD0895299A0CB50F7326
:100750000CBD0895EAEFF1E000E0008300E00183C2
:10076000ECEFF1E000E0008300E0018300E00093A3
:10077000FE0100E00093FF0100E00093000200E0B2
:100780000093010200E00093020200E00093F501F3
:100790000895B1D100E00093FE0100910202002310
:1007A00019F00FEF1FEF21C0AAEFB1E0ED91FC911E
:1007B0001197709718F00FEF1FEF17C0EAEFF1E0F5
:1007C00000811181012B31F0EAEFF1E0008111810C
:1007D00010E00BC0EAEFF1E000811181012B19F468
:1007E00000E010E002C000E010E0E4E093C185D139
:1007F000C801082F092B21F020FB16F48C014BD1E6
:10080000E2E08AC1009169000C7F009369000091C9
:100810006900036000936900E89A08958A93FA9347
:10082000EA933A922A921A920A927A936A935A9384
:100830004A933A932A931A930A938FB74A9914C00A
:1008400001E000932B026BD080DF009169000C7FE8
:10085000009369000091690003600093690067D00C
:1008600000E07AD077D011C05ED068DF00916900D7
:100870000C7F009369000091690002600093690099
:1008800001E06AD001E021DC63D08FBF09911991AA
:1008900029913991499159916991799109901990CA
:1008A00029903990E991F9918991189508E300937D
:1008B000B3000091B00002600093B0000091B1005D
:1008C00005600093B1000091700002600093700019
:1008D00008958A93FA93EA933A922A921A920A9284
:1008E0007A936A935A934A933A932A931A930A9360
:1008F0008FB721D08FBF09911991299139914991D1
:100900005991699179910990199029903990E991BB
:10091000F99189911895CADF17D018D0089500E091
:1009200000930002089501E000930002089501E0A1
:10093000009301020895E3E2F2E0008111810F5F6C
:100940001F4F008311830895539A0895539A089571
:100950005B9808955B9A0895009399010895CBD010
:10096000D801C90106E410E0FD010483158314D009
:10097000FD01028313838D939C9311978D01E4E015
:10098000C9C0BBD0C801082F092B21F020FB16F4E9
:100990008C0181D0E2E0C0C0E3E2F2E0008111818D
:1009A0000895802F912F41D0082F192FA2C101E067
:1009B00010E09FC19CD02801390182E092E0D20171
:1009C00009C01296823029F4FD010591F491E02FBF
:1009D00009951296A615B70549F0FD0125913491A8
:1009E0002030304071F3823079F7F3CF8A959A95B1
:1009F00031F7E8E08BC07FD0D801ED91FC911197E1
:100A000000811181012B21F42FD0A017B10709F427
:100A1000CEDF2AD0ED91FC91119700831183ECE297
:100A2000F2E0A083B183E4E075C065D001C0099510
:100A30001BD0012BC1F00081E0912C02F12FA0818D
:100A4000B1812D913C91ECE2F2E020833183D80119
:100A50001496ED91FC91D80112960D911C91202FC6
:100A6000212B29F7E4CFDFCFECE2F2E00081118106
:100A700008950FE50DBF01E00EBFC0E4D1E053D0F3
:100A8000002309F06CD004E510E026E530E092DFA9
:100A900020DB06D086CF202F212B09F02BD1089503
:100AA00080CF149F102D059F100D049F002D110D58
:100AB0000895000F111F4A95E2F7089500241124AC
:100AC000E0E1001F111FEA9542F0001C111C041602
:100AD0001506B8F3041A150AF4CFA0010095109575
:100AE0000895DA92CA92BA92AA929A928A927A92C5
:100AF0006A925A924A92BA93AA939A938A930895C1
:100B0000DD84CC84BB84AA84998488847F806E80B1
:100B10005D804C80BB81AA8199818881F0E0EC0FD7
:100B2000FD1FEF01089501E00895E5DFD80106C03B
:100B3000F90161919F016D9341505040642F652BE5
:100B4000B9F7E4E0E7CF20E02D9301501040E1F742
:100B5000089525912D9301501040D9F7089588E408
:100B600090E0FC0105911491FC013296A591B4919D
:100B7000FC01349625913491422F432B19F0F90151
:100B8000E8DF01C0E0DF069610E08435910748F306
:100B9000089504501040672B11F02C5F3F4FFA016D
:100BA0000994ABDFF80189013497808191814281FA
:100BB00053814095509575DF8017910709F0F7DE56
:100BC0008C01E2E0A9CF8DDFD80169015A01CB0188
:100BD0000B2B21F0088D198D012BE1F0890161DFCC
:100BE00028010A2F0B2B69F4042D0C5F1F4FEA8993
:100BF000FB890995D801012B09F014960A2F0B2BBC
:100C000029F1FD01349740825182860100951095AB
:100C1000028313838E849F8400E080169006B1F0D7
:100C2000442455243D010AC09C0113D08A0D9B1D0C
:100C300001E0400E00E0501E6A0C7B1C4C145D0469
:100C400028F4082F092B81F704D0F2CF8D01EAE1B7
:100C500057CF8301F4010994E0E008D007D001D018
:100C6000B2CF7A936A9360E070E008953FD0EA9340
:100C7000089537DF5801C9013A016B014424552416
:100C8000012B79F12F3F3F4F39F49A010A2D89DF6B
:100C90002801A30113DFC80100E0C016D006B1F09F
:100CA000A0E0B0E08C0101501040A301FADE450144
:100CB00008C08401F60109951196830111950195EB
:100CC0001040800E911EA817B90798F34E855F85D6
:100CD00000E04030500729F0688979899201850148
:100CE00058DFE2E10DCF01D0C4CFE0E000D0EA93BD
:100CF000BECFFFCF00DF202F212B09F464C00250AC
:100D00001040F80140815181443020E0520708F43E
:100D10005AC02EE232E0D9011296ED91FC916E2F6D
:100D20006F2B19F00E171F0738F4D8011296ED93A8
:100D3000FC93F90124C0FB0148D019F0601771073A
:100D4000D0F300801180BF01600D711D06171707D9
:100D5000D0F16017710739F48001040F151F00836B
:100D600011838F010EC031D031F00801040E151E21
:100D70006015710540F1D80112966D937C93028342
:100D80001383F801A281B3814A2F4B2BE1F04081FC
:100D90005181B801640F751F6A177B07A1F4F9012F
:100DA00020E020832183FD0120813181F8014081F1
:100DB0005181420F531F40835183FD0122813381B2
:100DC000F80122833383E4E0A5CE62817381062E8D
:100DD000072A0895E6010000D5000006000700007C
:100DE00000010002000300040005010601070100E4
:100DF00001010102010301040105020602070200CC
:0A0E000002010202020302040205CF
:000A720183
:00000001FF
