:10000000AAC618951895189518951895189573C639
:100010001895189518951895189518951895189578
:100020001895189541C60EC61DC6189518951895B1
:100030001895189500000000000000009F06DB00E6
:1000400060010000F2D6F801C9014FEF5FEF082F01
:10005000092BB9F0008110E040275127319628E0A4
:10006000222369F040FB3EF45695479501E0402776
:1000700000EA502702C0569547952A95F1CF01977F
:10008000E6CFBA01672F70E08A01102F00E0AB01C4
:1000900040275127BA01672F70E08B01BA01762FF4
:1000A00060E0062B172BE2E0D1C6A895089578945E
:1000B0000895009389010895009362010895B3D6CD
:1000C0003CD6F5DF00E00A9300E010E01A930A93B3
:1000D00000E00A9300E010E01A930A9306EC10E0A7
:1000E0001A930A9302EC10E01A930A9361EC70E001
:1000F00040EC50E024EC30E005EC10E0EDD308E0FB
:1001000010E01A930A9308E010E01A930A9300E1B2
:1001100010E01A930A9308E010E01A930A9302EB96
:1001200011E01A930A9302EA11E01A930A9302E982
:1001300011E01A930A930AE811E01A930A9302EE67
:1001400011E01A930A9302EC11E01A930A9301E06A
:100150000A9338E02EE440E855E260E070E0E2E324
:10016000F2E00081118130D101E026D09CD102E083
:10017000A3DF6CD300E09DDF80E090E0A0E0B0E082
:100180002FD20FD392DFFCCF980103E0273110E08C
:10019000310710F402E008952F3810E0310710F411
:1001A00001E00895213A10E0310728F02A3212E0E8
:1001B000310708F400E0089500936001089533D6F4
:1001C000D801C9019C018D0170D1C8019C018D012C
:1001D0008DD1E4E039C624D6402E512E622ECA01BC
:1001E0009C01152D1068042D78D1D801FC01EA0F6F
:1001F000FB1F608211968D01E7E023C613D608012C
:100200001A018D819E8150E04424A0E0B0E0A21745
:10021000B307E8F48001F80131960F01F101E00F16
:10022000F11F0081002329F001E010E0442DA8D542
:10023000502B07E0401641F4FB01E80FF91F5083F3
:10024000019650E0442401C043941196E0CF44202D
:1002500029F0FB01E80FF91F508301968C01E7E0BC
:10026000F2C5D7D538012901CA01BB24AA24A39419
:10027000F301EA0DFB1D3197D080F301EA0DFB1D60
:10028000C080F301EA0DFB1D91808824F301EA0D83
:10029000FB1D028110E0802A912AF301EA0DFB1D6B
:1002A000B381A0E0F301EA0DFB1D048110E0A02B57
:1002B000B12B0A2F0B2B21F0A13D07E0B00738F03E
:1002C000A20123E01C2D0D2D86DFC80137C0E5E714
:1002D000F1E00081118194012A0F3B1F02171307DF
:1002E00038F4A20122E01C2D0D2D75DFC80126C0B7
:1002F00092011C2D0D2DF1D0C8010A2F077000238B
:1003000051F043E08D0141D50395F201E80FF91F4B
:100310000083019608C043E08D0137D5F201E80F54
:10032000F91F008301969A938A93B201EDE6F1E0FA
:10033000408151819D01840161DFC8018C01EEE0A3
:1003400079C567D5D80129013A01DD24CC24C394AD
:10035000FD01EC0DFD1D31978080FD01EC0DFD1DB3
:10036000A080C301982C990C99080091600110E0BD
:100370008016910629F0882019F000E010E017C0DF
:10038000BA2CBB0CBB080A2D023031F4AC0192012F
:100390008D0167DFC80106C0A20121E01A2D082DDA
:1003A0001ADFC801E5E6F1E0808391838C01EEE07D
:1003B00041C500912D02089500912E020895E0E3B9
:1003C000F2E000811181089522D524970A831B83CE
:1003D00029833883CA01DB016D887E884F88588C59
:1003E000ED8CFE8CCF8CD8A0A9A0BAA08BA09CA02D
:1003F0000A811B81EBE7F1E000831183EDE7F1E077
:1004000080839183A283B383098100938301088150
:10041000009381010C8900938201E7E6F1E060829C
:100420007182E9E6F1E040825182098D1A8DEBE696
:10043000F1E0008311830B8D1C8DEDE6F1E000836C
:100440001183EFE6F1E0E082F182E1E7F1E0C082C2
:10045000D182E3E7F1E0A082B182E5E7F1E08082BA
:1004600091820DA11EA1E9E7F1E0008311830FA1A4
:1004700018A5E7E7F1E0008311835A924A927A9235
:100480006A92609182015091810140918301EDE770
:10049000F1E000811181228133813CD22496E5E292
:1004A000C7C4A9D20895B7D20895BDD4D801C9014F
:1004B0009C018D01C7DD9801022FFD01E80FF91F96
:1004C000008301968901012F10E0FD01E80FF91F5B
:1004D000008301968C01E4E0B7C4402F512FF9014D
:1004E0004083F901518302E010E008959CD4D801C3
:1004F000C9019C018D01A2D2E4E0A6C45DDF08958C
:1005000058DF089590D4D801C9019C018D01C4D24F
:10051000E4E09AC48AD453DFC801E3E6F1E0008145
:100520001181C80184E090E04ADFE3E6F1E0208138
:100530003181021B130B0430104010F001E001C0A8
:1005400000E0E2E083C43BDFE3E6F1E020813181BB
:10055000021B130B083920E0120710F001E0089588
:1005600000E008952CDFE3E6F1E020813181021BF9
:10057000130B0530104010F001E0089500E00895DD
:100580001EDFE3E6F1E000831183089548D4D8012B
:10059000C901843000E0900710F400E01FC0FD01A5
:1005A000E80FF91F319750804424FD01E80FF91F2F
:1005B0003297008110E0402A512A9C01225030409D
:1005C0008D0140DD38019C01225030408D013ADD23
:1005D0000415150511F401E001C000E0E8E030C4A5
:1005E00024D4009162010050A1F0025099F00A95C4
:1005F000E9F00A9509F450C00A9509F48FC00A95EC
:1006000009F4A3C00A9509F4A6C00A9509F4B3C079
:10061000B8C0B7C0B5DF45DFE5E6F1E000E0008334
:1006200000E0018303E000936201ABC069DF0023B7
:1006300061F120E230E0E5E6F1E000811181201B6C
:10064000310BE5E6F1E040815181E7E6F1E0008120
:100650001181040F151F56DFC801813000E090079B
:100660006CF0E5E6F1E000811181080F191F0083AD
:10067000118386DF04E00093620107C08F3F0FEF14
:10068000900719F402E0009362015DDF002319F086
:1006900002E00093620175C033DF002349F120E2DC
:1006A00030E0E5E6F1E000811181201B310BE5E649
:1006B000F1E040815181E7E6F1E000811181040F12
:1006C000151F20DFC801813000E0900754F0E5E6F7
:1006D000F1E000811181080F191F0083118350DFA1
:1006E00007C08F3F0FEF900719F402E000936201FB
:1006F00011DF002391F0E5E6F1E020813181E7E6AA
:10070000F1E00081118142DF002321F005E0009338
:10071000620137C002E00093620133C0E5E6F1E018
:1007200040815181E9E6F1E020813181E7E6F1E0A5
:100730000081118106DE012B21F006E000936201A9
:1007400020C002E0009362011CC0ABDE19DF07E0AD
:100750000093620116C006DF002399F0E5E6F1E0A0
:1007600020813181E9E6F1E00081118128DD08E096
:100770000093620106C0C2DE002319F002E000937C
:100780006201E2E063C300917A00102F14FF07C0FA
:1007900000917A00006100937A0001E0089500E082
:1007A00008958A9300918901005029F00A9521F05B
:1007B000095071F03EC03DC000E0009388010091F7
:1007C000880151D074D05CD00AE00093890131C017
:1007D000DADF002371F176D0D7DC802F282F21704B
:1007E0000091880110E0000F111FF801EE56FE4F36
:1007F0002083282F21FB20E020F90091880110E0C0
:10080000000F111FF801EE56FE4F21830091880161
:1008100003950093880100918801083030F436D0A8
:100820000091880120D02CD004C036D000E0009385
:10083000890189910895F8940895E0E3F2E0008138
:1008400011810F5F1F4F0083118308950FE3009301
:100850007E0007E000937A0000E000937B0000EC4C
:1008600000937C00089510917C00107F10937C0011
:10087000102F1F7020917C00212B20937C00089565
:1008800000917A00006C00937A00089500917A003C
:100890000F7300937A00089500917A000F7300930C
:1008A0007A00009164000160009364000895009153
:1008B00064000E7F0093640000917A00006800934A
:1008C0007A0008952091780030E089013091790014
:1008D00020E0022B132B0895088019802A803B808A
:1008E000E3E0F2E000831183E5E0F2E0208331836E
:1008F000E7E0F2E040835183E9E0F2E06083718356
:10090000EBE0F2E000821182EDE0F2E02082318241
:100910002A96089581D2C801D901942EA52E862E3B
:100920006B847C844D845E84E9E1F2E060827182B4
:10093000E5E1F2E0408251828C019D0140E150E00E
:1009400060E070E025D2A801B90100E010E820E7DE
:1009500030E03ED2A80141505040242FE5E0F2E0C3
:1009600000811181F80120838A01012F10E0202FDE
:10097000E3E0F2E000811181F80120830A2D0750A5
:1009800059F00A9589F4EBE0F2E000811181F80159
:1009900000810660008308C0EBE0F2E00081118175
:1009A000F8010081046000830EE49016A1F005E4D4
:1009B000901649F4EBE0F2E000811181F80100812A
:1009C0000062008308C0EBE0F2E000811181F801D1
:1009D00000810063008301E0801659F002E0801678
:1009E00041F4EBE0F2E000811181F8010081086040
:1009F0000083EFE022C2EBE1F2E000E0008300E0E0
:100A0000018300E000932D0200E000932E0200E03D
:100A100000932F02089507D2A7E0B2E0ED91FC9178
:100A20001197008100680083A9E0B2E0ED91FC918C
:100A30001197008100690083E4E006C2F4D1A801A7
:100A4000E5E1F2E040835183E7E1F2E02083318386
:100A5000A7E0B2E0ED91FC91119700810F77008340
:100A6000A9E0B2E0ED91FC91119700810F7600832F
:100A7000A7E0B2E0ED91FC91119700810066008340
:100A8000A9E0B2E0ED91FC9111970081086200832A
:100A900001E010E0E4E0D8C1C4D1C801D90100E010
:100AA00000932D0200912F02002319F00FEF1FEF8A
:100AB0003EC0EBE1F2E0008111810A171B0718F03C
:100AC0000FEF1FEF34C0EBE1F2E000811181012B49
:100AD00019F1B1DE00E010E0EBE1F2E020813181BC
:100AE0000217130758F4F801E35EFD4F2081FC0163
:100AF000E00FF11F20830F5F1F4FEECFEBE1F2E01D
:100B000040805180EBE1F2E000E0008300E00183EF
:100B1000CEDA042D10E00BC0EBE1F2E00081118190
:100B2000012B19F400E010E002C000E010E0E6E064
:100B300089C179D1E7E1F2E000811181012BC9F48B
:100B4000A9E0B2E0ED91FC91119700810F7D008347
:100B5000A7E0B2E0ED91FC91119700810064008361
:100B6000A9E0B2E0ED91FC9111970081006400834F
:100B70001CC0A5E1B2E0ED91FC9111970081ADE0C0
:100B8000B2E0ED91FC9111970083E5E1F2E0008184
:100B900011810F5F1F4F00831183E7E1F2E00081B5
:100BA00011810150104000831183E4E04DC13BD11D
:100BB000A9E0B2E0ED91FC9111970081077B0083E1
:100BC00001E077DAA7E0B2E0ED91FC9111970081A6
:100BD00000680083A9E0B2E0ED91FC9111970081DB
:100BE0000069008301E000932E02E4E02DC11BD1D7
:100BF000EBE1F2E000811181003420E0120738F0CF
:100C000001E000932F0201E000932D0219C0ADE036
:100C1000B2E0ED91FC9111970081EBE1F2E02081CF
:100C20003181F901E35EFD4F0083EBE1F2E00081E9
:100C300011810F5F1F4F0083118301E000932D028C
:100C4000E4E002C1FA93EA930A922A931A930A9370
:100C50002FB76FDF2FBF0991199129910990E99161
:100C6000F99118958A93FA93EA933A922A921A92F2
:100C70000A927A936A935A934A933A932A931A93CD
:100C80000A938FB794DF8FBF0991199129913991F8
:100C900049915991699179910990199029903990C8
:100CA000E991F99189911895FA93EA930A924A93F6
:100CB0003A932A931A930A934FB799DF4FBF09913A
:100CC00019912991399149910990E991F9911895D2
:100CD00008E30093B3000091B00002600093B000FD
:100CE0000091B10005600093B100009170000260B6
:100CF0000093700008958A93FA93EA933A922A92A5
:100D00001A920A927A936A935A934A933A932A933D
:100D10001A930A938FB791DD8FBF09911991299189
:100D20003991499159916991799109901990299036
:100D30003990E991F99189911895CADF089575D094
:100D4000C801082F092B21F020FB16F48C0110D0CC
:100D5000E2E07CC0AAC00FE50DBF01E00EBFC0E419
:100D6000D1E07BD0002309F086D0A9D906D0F2CFFC
:100D7000202F212B09F09AD00895ECCF000F111FDE
:100D80004A95E2F70895169507954A95E2F7089572
:100D90002224349F302D259F300D169F300D079F44
:100DA000300D249F202D310D159F200D311D069FE4
:100DB000200D311D149F102D210D321D059F100D8A
:100DC000211D321D049F002D110D221D321D08957D
:100DD000002411241001E0E2001F111F221F331F05
:100DE000EA9572F0001C111C221C331C0416150617
:100DF0002606370688F3041A150A260A370AECCFA6
:100E0000A001B10100951095209530950895FA92B2
:100E1000EA92DA92CA92BA92AA929A928A927A92B2
:100E20006A925A924A92BA93AA939A938A9308958D
:100E3000FF84EE84DD84CC84BB84AA849984888476
:100E40007F806E805D804C80BB81AA819981888182
:100E5000F0E0EC0FFD1FEF01089501E0089520E0A0
:100E60002D9301501040E1F7089525912D930150E5
:100E70001040D9F708958EE390E0FC01059114919C
:100E8000FC013296A591B491FC01349625913491E0
:100E9000422F432B19F0F901E8DF01C0E0DF06968D
:100EA00010E08434910748F30895FFCFBCDF202F72
:100EB000212B09F464C002501040F8014081518197
:100EC000443020E0520708F45AC027E332E0D90149
:100ED0001296ED91FC916E2F6F2B19F00E171F07D4
:100EE00038F4D8011296ED93FC93F90124C0FB016C
:100EF00048D019F060177107D0F300801180BF014E
:100F0000600D711D06171707D0F16017710739F4CE
:100F10008001040F151F008311838F010EC031D093
:100F200031F00801040E151E6015710540F1D8015D
:100F300012966D937C9302831383F801A281B3818F
:100F40004A2F4B2BE1F040815181B801640F751F8E
:100F50006A177B07A1F4F90120E020832183FD01BA
:100F600020813181F80140815181420F531F40831C
:100F70005183FD0122813381F80122833383E4E030
:0C0F800063CF62817381062E072A08955A
:000D56019C
:00000001FF
