:1000000056C518951895189518951895189523C5DF
:100010001895189518951895189518951895189578
:1000200018951895F3C4D4C4E3C418951895189579
:10003000189518950000000000004F0507016001A9
:1000400000006FEF7FEF02C021503040422F432B62
:10005000A1F0F80141918F01642748E001C04A9561
:10006000442391F30B011694079460FBB001BEF793
:1000700051E0652750EA7527F2CF8B01012F10E080
:10008000762F17270895A8950895789408950093DA
:10009000A1010895009364010895FFD4F6DF00E004
:1000A0000A9310E01A931A931A931A931A9306EC70
:1000B0001A930A9302EC1A930A9361EC70E040ECF5
:1000C00050E024EC30E005EC11D308E010E01A9386
:1000D0000A931A930A9300E11A930A931A930A93C4
:1000E0000EED11E01A930A930EEC11E01A930A93A5
:1000F0000EEB11E01A930A930EEA11E01A930A9399
:100100000EE012E01A930A930EEE11E01A930A938E
:1001100001E00A9338E02EE440E855E260E070E048
:10012000EEE5F2E000811181DAD001E020D030D19B
:1001300002E0B0DF99D200E0AADF99D157D2A3DF65
:10014000FCCF23E0073130E0130710F422E00DC0AC
:100150000F38130710F421E008C0013A130730F0FC
:100160000A3232E0130708F420E0022F08950093CA
:1001700062010895E5D4C8010DD198018C0120D108
:10018000E2E0E7C4DBD4822FDA019D01106812D1CE
:10019000A00FB11F8C930F5F1F4FE4E0D8C4CDD4E4
:1001A00008011A0150E04424A0E0B0E08D819E8156
:1001B00002C043941196A217B307D0F48001F8014E
:1001C00031960F01F101E00FF11F0081002329F0AA
:1001D00001E010E0442D80D4502B07E0401649F791
:1001E000FB01E80FF91F5083019650E04424E2CF51
:1001F000442029F0680F791FFB01508301968C0180
:10020000E7E0A4C497D4F801C9010081118172808C
:1002100066242381622AB481A0E02581A22B2B2BA6
:1002200021F0A13D27E0B20718F0AC0123E00CC09B
:10023000EBE6F1E022813381A3014A0F5B1F241713
:10024000350720F4AC0122E09DDF1BC09C01B2D039
:100250009801FC01E00FF11F43E08D0142D4A80199
:100260000A2F077009F0439540832F5F3F4F3A9361
:100270002A93BC01EBE6F1E0408151819D018301AD
:100280008EDF98018901E8E05EC4F80100811181E8
:10029000602F762F770F770B009062011124601585
:1002A000710529F0002319F000E010E008951130E5
:1002B00019F48F01A7DF03C0A90121E063DFE0E6A5
:1002C000F1E000831183089500915902089500918F
:1002D0005A020895ECE5F2E00081118108952ED4D0
:1002E000EBE7F1E0048315834083518362837383DA
:1002F000208736830C8107830D811E81A7E6B1E03C
:100300000D931C932F813885A9E6B1E02D933C9382
:1003100049855A85ABE6B1E04D935C934B855C858E
:10032000AFE6B1E04D935C934D855E85A1E7B1E00A
:100330004D935C934F855889A3E7B1E04D935C934F
:1003400049895A89ADE6B1E04D935C934B895C894C
:10035000A5E7B1E04D935C934D895E89A9E7B1E0D3
:100360004D935C934F89588DA7E7B1E04D935C9313
:100370003A932A931A930A936781568140850081A4
:10038000118122813381E9D1E9E1E1C336D20895B7
:100390003DD20895D3D3D801C90153DEFD01E80F42
:1003A000F91F00830196A80FB91F1C9301968C01B9
:1003B000E4E0CDC3F9010083118302E010E0089569
:1003C00034D2089584DF08957FDF089555D20895CB
:1003D00081DFE5E6F1E020813181021B130B04305F
:1003E000104010F001E0089500E0089573DFE5E6A5
:1003F000F1E020813181021B130B083920E0120744
:1004000010F001E0089500E0089564DFE5E6F1E012
:1004100020813181021B130B0530104010F001E0E8
:10042000089500E0089556DFE5E6F1E000831183CA
:10043000089582D3C801243000E03007A8F0FC0101
:10044000E20FF31F3297B181A0E00081A02B225070
:10045000304029018C01F5DD92018C01F2DD0A1793
:100460001B0711F401E001C000E0E6E06EC300915B
:100470006401025091F00A95C9F00A9509F444C04C
:100480000A9509F47BC00A9509F489C00A9509F414
:100490008AC00A9509F495C00895C5DF77DFE0E6C4
:1004A000F1E000E00083018303E065C08DDF0023FD
:1004B00031F120E230E0E0E6F1E000811181201B23
:1004C000310B40815181E7E6F1E000811181040F99
:1004D000151F7CDF013020E012075CF0E0E6F1E060
:1004E00020813181200F311F208331839CDF04E084
:1004F00004C00F3F1F4F19F402E00093640176DF40
:10050000002309F061C008955FDF002329F120E294
:1005100030E0E0E6F1E000811181201B310B4081E9
:100520005181E7E6F1E000811181040F151F4EDFD4
:10053000013020E0120754F0E0E6F1E02081318143
:10054000200F311F208331836EDF06C00F3F1F4F06
:1005500019F402E0009364013BDF0023C1F1E0E6FF
:10056000F1E020813181E7E6F1E00081118161DF76
:10057000002351F105E0009364010895E0E6F1E005
:1005800040815181E9E6F1E020813181E7E6F1E047
:10059000008111817ADE012BB9F006E0ECCFF6DEA6
:1005A00042DF07E0E8CF31DF002389F0E0E6F1E049
:1005B00020813181E9E6F1E000811181DBDD08E095
:1005C000DACF00DF002319F002E000936401089500
:1005D00000917A00102F14FF07C000917A0000618B
:1005E00000937A0001E0089500E008950091A101D0
:1005F000015019F0095059F0089500E00093A0014E
:1006000040D062D04AD00AE00093A1010895E0DF13
:100610000023F1F064D063D094DD2091A00130E09C
:10062000E8E8F1E0E20FF31F008B0091A0010395D1
:100630000093A0010091A001083030F434D0009163
:10064000A0011FD02AD0089534D000E00093A1016A
:100650000895F8940895ECE5F2E0008111810F5FB0
:100660001F4F0083118308950FE300937E0007E07E
:1006700000937A0000E000937B0000EC00937C0084
:10068000089510917C00107F10937C000F701091E2
:100690007C00102B10937C00089500917A00006C70
:1006A00000937A00089500917A000F7300937A0006
:1006B000089500917A000F7300937A00009164000E
:1006C0000160009364000895009164000E7F009320
:1006D000640000917A00006800937A000895009108
:1006E000780010E030917900132B089527D2EFE2C3
:1006F000F2E000831183228333834483558366832E
:1007000077830C811D81008711870E811F810287ED
:10071000138708851985048715870A85008F0B853F
:100720001C85068717870D85018FA485B5850A2F3F
:100730000B2B89F0408D01E010E0CED11C91102BE5
:100740001C93418D01E010E0C7D10095A685B785C7
:100750001C9110231C93EEE0FAC1EFD1842F452E9B
:10076000962FAFE2B2E04D815E81FD01448B558B47
:100770004F815885408B518B44E0BAD1A801B90113
:1007800000E010E820E730E0B6D198012150304079
:10079000FD0102811381F8012083ED91FC911197F5
:1007A0003083042D075049F00A9571F4FD0100854E
:1007B0001185F8010081066006C0FD0100851185E4
:1007C000F8010081046000838E3459F0FD0100853A
:1007D00011858534F801008111F4006201C00063C5
:1007E0000083913041F0923031F4FD01A085B18554
:1007F0000C9108600C93E9E0A9C1EFE2F2E000E09F
:10080000068B078B02A703A704A7089597D1EFE2F1
:10081000F2E0A481B5810C9100680C93A681B781A8
:100820000C9100690C93E4E092C188D1AFE2B2E090
:10083000FD01008B118B228B338B1496ED91FC9173
:10084000159700810F7700831696ED91FC9117970D
:1008500000810F7600831496ED91FC91159700812D
:1008600000660083FD01A681B7810C9108620C939C
:1008700001E010E0E4E06BC161D1C801AFE2B2E099
:1008800000E00093590200915B02002331F4FD0166
:10089000068917890217130718F00FEF1FEF1EC004
:1008A000012BD1F0D6DE00E010E009C0E00FF11F0F
:1008B000228DFC01E00FF11F20830F5F1F4FFD0110
:1008C000268937890217130788F3822F00E0068BE9
:1008D000078BDBDB082F01C000E010E0E4E037C14C
:1008E0002DD1AFE2B2E0FD0102891389012BA9F4F9
:1008F0001696ED91FC91179700810F7D0083149659
:10090000ED91FC911597008100640083FD01A681A3
:10091000B7810C9100640C9317C05096ED91FC9137
:10092000519700811A96ED91FC911B970083FD0170
:10093000008911890F5F1F4F008B118B028913896A
:1009400001501040028B138BE4E001C1F7D0AFE2FD
:10095000B2E01696ED91FC9117970081077B00831A
:100960001496ED91FC911597008100680083FD01BC
:10097000A681B7810C9100690C9301E000935A02A3
:10098000E4E0E5C0DBD0AFE2B2E0FD010689178903
:10099000003420E0120720F001E000935B0214C055
:1009A0001A96ED91FC911B9720815496ED91FC9144
:1009B0005597E00FF11F2083FD01068917890F5F0E
:1009C0001F4F068B178B01E000935902E4E0BFC074
:1009D000FA93EA930A922A931A930A932FB780DF25
:1009E0002FBF0991199129910990E991F9911895D1
:1009F000FA93EA930A921A930A931FB7A7DF1FBFCD
:100A0000099119910990E991F9911895FA93EA934E
:100A10000A923A932A931A930A933FB7B3DF3FBFE0
:100A200009911991299139910990E991F9911895B4
:100A300008E30093B3000091B00002600093B0009F
:100A40000091B10005600093B10000917000026058
:100A50000093700008958A93FA93EA933A922A9247
:100A60001A920A927A936A935A934A933A932A93E0
:100A70001A930A938FB7EFDD8FBF099119912991CE
:100A800039914991599169917991099019902990D9
:100A90003990E991F99189911895CADF0895402F0D
:100AA000412B19F020FB0EF40FD0089581C00FE503
:100AB0000DBF01E00EBFC0E4D1E052D0002309F029
:100AC0005DD0EBDA06D0F2CF202F212B09F071D0C8
:100AD0000895ECCF000F111F4A95E2F7089516957F
:100AE00007954A95E2F70895000F111F221F331F43
:100AF0004A95D2F70895002411241001E0E2001F66
:100B0000111F221F331FEA9572F0001C111C221CBA
:100B1000331C041615062606370688F3041A150A30
:100B2000260A370AECCFA001B10100951095209557
:100B3000309508957A926A925A924A92BA93AA93F9
:100B40009A938A9308957F806E805D804C80BB81EC
:100B5000AA8199818881F0E0EC0FFD1FEF010895D3
:100B600001E0089520E02D9301501040E1F7089531
:100B700025912D9301501040D9F708958CE390E012
:100B8000FC0105911491FC013296A591B491FC01F0
:100B9000349625913491422F432B19F0F901E8DF67
:100BA00001C0E0DF069610E08234910748F3089513
:100BB000FFCFC4DF202F212B09F464C00250104066
:100BC000F80140815181443020E0520708F45AC0B6
:100BD00023E632E0D9011296ED91FC916E2F6F2B36
:100BE00019F00E171F0738F4D8011296ED93FC93F5
:100BF000F90124C0FB0148D019F060177107D0F348
:100C000000801180BF01600D711D06171707D0F11C
:100C10006017710739F48001040F151F00831183D9
:100C20008F010EC031D031F00801040E151E601581
:100C3000710540F1D80112966D937C930283138362
:100C4000F801A281B3814A2F4B2BE1F04081518101
:100C5000B801640F751F6A177B07A1F4F90120E042
:100C600020832183FD0120813181F8014081518160
:100C7000420F531F40835183FD0122813381F801CC
:100C800022833383E4E063CF62817381062E072AD7
:020C90000895C5
:000AAE0147
:00000001FF
