:10000000FAC4189518951895189518951895CEC492
:100010001895189518951895189518951895189578
:10002000189518959EC485C494C41895189518956C
:10003000189518950000000000000200B7020800A3
:1000400013021D024B02850296029A02A902B30214
:100050009D006001000056D5F801C9012FEF3FEF68
:1000600001C00197082F092B91F00191202708E08A
:1000700001C00A950023A9F3A9015695479520FBD5
:100080009A01BEF711E0212710EA3127F2CFA9012A
:10009000890110E0152BE2E03EC5A89508957894FB
:1000A000089500938B010895009367010895A0D4EB
:1000B000F6DF00E00A9310E01A931A931A931A934A
:1000C0001A9306EC1A930A9302EC1A930A9361ECC2
:1000D00070E040EC50E024EC30E005ECDED200E0D3
:1000E00010E00A930A930A930A9300E11A930A9381
:1000F0001A931A931A931A931A931A930AE711E010
:100100001A930A9300E00A930A930CEA11E01A93F7
:100110000A930CE811E01A930A9301E00A9338E07D
:100120002EE440E855E260E070E000E010E0D4D05A
:1001300002E01FD002E0B8DF6ED200E0B2DF6ED185
:1001400025D2ABDFFCCF23E0073130E0130710F4FA
:1001500022E00DC00F38130710F421E008C0013A67
:10016000130730F00A3232E0130708F420E0022FC0
:100170000895009362010895C5D4C801E8D098019C
:100180008C01FBD0E2E0C7C4BBD4822FDA019D0111
:100190001068EDD0A00FB11F8C930F5F1F4FE4E0EC
:1001A000B8C4ADD408011A0150E04424A0E0B0E086
:1001B0008D819E8102C043941196A217B307D0F49B
:1001C0008001F80131960F01F101E00FF11F00816C
:1001D000002329F001E010E0442D1DD4502B07E04E
:1001E000401649F7FB01E80FF91F5083019650E0D4
:1001F0004424E2CF442029F0680F791FFB0150838B
:1002000001968C01E7E084C477D4F801C90100812C
:100210001181728066242381622AB481A0E0258145
:10022000A22B2B2B21F0A13D27E0B20718F0AC0147
:1002300023E00CC0EEE6F1E022813381A3014A0FF6
:100240005B1F2417350720F4AC0122E09DDF1BC0A3
:100250009C018DD09801FC01E00FF11F43E08D015E
:10026000DFD3A8010A2F077009F0439540832F5F61
:100270003F4F3A932A93BC01EEE6F1E04081518171
:100280009D0183018EDF98018901E8E03EC4F801F9
:100290007081618100906201701529F0772319F057
:1002A00000E010E00895623011F4AEDF05C0A9014E
:1002B00021E0162F072F68DFE0E6F1E000831183CD
:1002C00008950091F10108950091F2010895EAEF77
:1002D000F1E000811181089513D4E2E7F1E0408359
:1002E000518362837383268334830C8105830D815C
:1002F0001E81AAE6B1E00D931C932F813885ACE6F0
:10030000B1E02D933C934B855C85AEE6B1E04D9317
:100310005C934B895C89A0E7B1E04D935C933A9381
:100320002A931A930A936581548146810081118131
:1003300022813381C7D1E9E1ECC325D208952CD2C3
:10034000089539D2089541D208954ED20895D8D350
:10035000D801C90180DEFD01E80FF91F0083019675
:10036000A80FB91F1C9301968C01E4E0D2C3F901D8
:100370000083118302E010E0089540D20895A4DFC5
:1003800008959FDF089543D20895A1DFE8E6F1E0E4
:1003900020813181021B130B0430104010F001E06A
:1003A000089500E0089593DFE8E6F1E020813181CF
:1003B000021B130B08392AE3120710F001E008951D
:1003C00000E0089584DFE8E6F1E020813181021B3E
:1003D000130B0530104010F001E0089500E008957F
:1003E00076DFE8E6F1E00083118308958BD32430B3
:1003F00040E0340780F0F801E20FF31F329791815B
:1004000080E04081842B2250304025DE08171907F8
:1004100011F401E001C000E0E2E07DC3009167015A
:10042000EAE3F0E02CC3DCDF88DFE0E6F1E000E0A7
:100430000083018384DF03E093C0A3DF002331F155
:1004400020E230E0E0E6F1E000811181201B310B79
:1004500040815181EAE6F1E000811181040F151F0E
:1004600092DF013020E012075CF0E0E6F1E020814D
:100470003181200F311F20833183B2DF04E004C0BB
:100480000F3F1F4F19F402E0009367018CDF002338
:1004900009F46DC064C075DF002329F120E230E06B
:1004A000E0E6F1E000811181201B310B4081518198
:1004B000EAE6F1E000811181040F151F64DF0130CD
:1004C00020E0120754F0E0E6F1E020813181200FB6
:1004D000311F2083318384DF06C00F3F1F4F19F483
:1004E00002E00093670151DF002309F440C029DFD7
:1004F000E0E6F1E020813181EAE6F1E0008111815E
:1005000075DF002361F105E02BC0E0E6F1E04081FA
:100510005181ECE6F1E020813181EAE6F1E00081F1
:100520001181B5DE012BD9F006E01AC059DF05DFD5
:1005300007E016C047DF0023D1F0E0E6F1E02081BC
:100540003181ECE6F1E00081118116DEFCDE08E08D
:1005500007C015DF002359F0F8DE01E0A2DD02E05C
:10056000009367010895EDDE00E0009367010895B0
:1005700000917A00102F14FF07C000917A000061EB
:1005800000937A0001E0089500E0089500918B0146
:10059000015019F0095059F0089500E000938A01C4
:1005A00047D069D051D00AE000938B010895E0DF75
:1005B000002329F16BD0C7DD10918A0122E0129F40
:1005C000EAE7F1E0E00DF11D102F11701083102FFC
:1005D00011FB10E010F9118300918A01039500933B
:1005E0008A0100918A01083030F434D000918A01E8
:1005F0001FD02AD0089534D000E000938B010895D5
:10060000F8940895EAEFF1E0008111810F5F1F4F28
:100610000083118308950FE300937E0007E00093A9
:100620007A0000E000937B0000EC00937C000895CA
:1006300010917C00107F10937C000F7010917C0053
:10064000102B10937C00089500917A00006C0093A9
:100650007A00089500917A000F7300937A0008954C
:1006600000917A000F7300937A000091640001609A
:10067000009364000895009164000E7F009364006D
:1006800000917A00006800937A0008950091780044
:1006900010E030917900132B089532D2EDECF1E0A7
:1006A0000083118322833383448355836683778356
:1006B0000C811D81008711870E811F81028713879E
:1006C000EEE027C21CD2842F452E962FADECB1E070
:1006D0004D815E81FD01408B518B4F815885448750
:1006E000558744815581FA0140E04083FD014681F0
:1006F0005781FA0140E04083FD0140855185FA01B0
:1007000040E0408344E093D1A801B90100E010E843
:1007100020E730E08FD1980121503040FD01028167
:100720001381F8012083ED91FC9111973083042D02
:10073000075049F00A9571F4FD0100851185F80113
:100740000081066006C0FD0100851185F801008169
:10075000046000838E3459F0FD01008511858534D5
:10076000F801008111F4006201C000630083913040
:1007700041F0923031F4FD01A085B1850C91086003
:100780000C93E9E0C5C1EDECF1E000E0028B038BD6
:1007900004A305A306A30895B3D1EDECF1E0A48171
:1007A000B5810C9100680C93A681B7810C9100690A
:1007B0000C93E4E0AEC1A4D1A3EDB1E0ED91FC91C6
:1007C00000810F760083E4E0A4C19AD1EDECF1E062
:1007D000A481B5810C9100660C93A681B7810C9120
:1007E00008620C93E4E095C18BD1A3EDB1E0ED91EB
:1007F000FC910081077B0083E4E08BC1EDECF1E02C
:10080000048715872687378701E010E0089578D19F
:10081000C801ADECB1E000E00093F1010091F301FB
:10082000002331F4FD01028913890217130718F020
:100830000FEF1FEF1EC0012BD1F0E2DE00E010E051
:1008400009C0E00FF11F2489FC01E00FF11F208394
:100850000F5F1F4FFD01228933890217130788F3A9
:10086000822F00E0028B038B1ADC082F01C000E00E
:1008700010E0E4E04EC144D1ADECB1E0FD010685ED
:100880001785012BA9F41696ED91FC91179700811D
:100890000F7D00831496ED91FC9115970081006403
:1008A0000083FD01A681B7810C9100640C9317C0F1
:1008B0001C96ED91FC911D9700811A96ED91FC918B
:1008C0001B970083FD01048515850F5F1F4F04876B
:1008D0001587068517850150104006871787E4E0C5
:1008E00018C101E00093F20108950AD1ADECB1E026
:1008F000FD0102891389003420E0120720F001E095
:100900000093F30112C01A96ED91FC911B97208180
:10091000EDECF1E0E00FF11F248BFD01028913895A
:100920000F5F1F4F028B138B01E00093F101E4E096
:10093000F0C0FA93EA930A922A931A930A932FB774
:100940009ADF2FBF0991199129910990E991F991A5
:1009500018951A930A931FB7C4DF1FBF0991199105
:100960001895FA93EA930A923A932A931A930A9360
:100970003FB7BBDF3FBF0991199129913991099088
:10098000E991F991189508E30093B3000091B00044
:1009900002600093B0000091B10005600093B100C7
:1009A0000091700002600093700008958A93FA939A
:1009B000EA933A922A921A920A927A936A935A93F3
:1009C0004A933A932A931A930A938FB71BDE8FBFE9
:1009D0000991199129913991499159916991799187
:1009E0000990199029903990E991F9918991189578
:1009F000CADF0895BFC00FE50DBF01E00EBFC0E420
:100A0000D1E090D0002309F09BD051DB01D0F2CF90
:100A1000F1CF000F111F4A95E2F70895169507953B
:100A20004A95E2F70895000F111F221F331F4A95C0
:100A3000D2F70895002411241001E0E2001F111FD5
:100A4000221F331FEA9572F0001C111C221C331C5C
:100A5000041615062606370688F3041A150A260A10
:100A6000370AECCFA001B101009510952095309583
:100A700008954591159011FA259035900895F9DF64
:100A8000041B10E000C020E030E000C0B8F010FC13
:100A900017C045910590E00FF11F0417100540E0C5
:100AA0002407340758F436F404910024F101E01BC4
:100AB000F0090994E00FF11F25903590F101099498
:100AC00011F4D6F7F1CF31960EF0319650E060E098
:100AD00070E045914B3F48F089F34F3F29F04E3F7E
:100AE00011F07591659155914591041B150B260BDD
:100AF000370B39F318F3E7CF7A926A925A924A92F7
:100B0000BA93AA939A938A9308957F806E805D80AA
:100B10004C80BB81AA8199818881F0E0EC0FFD1F98
:100B2000EF01089501E0089520E02D930150104059
:100B3000E1F7089525912D9301501040D9F70895BC
:100B400080E590E0FC0105911491FC013296A5919D
:100B5000B491FC01349625913491422F432B19F026
:100B6000F901E8DF01C0E0DF069610E08635910765
:060B700048F30895FFCFD9
:0009F60100
:00000001FF
